{
  "transactions": [
    {
      "hash": "0xe96d238f80def9ea4e5072700ae19522f0fec019df3d4e0f7e961491118a798a",
      "transactionType": "CREATE",
      "contractName": "Timelock",
      "contractAddress": "0x642b3344716b2A1C6eB52BB90f6314C862f33baF",
      "function": null,
      "arguments": null,
      "transaction": {
        "type": "0x00",
        "from": "0xd8984d5d0a68fd6ec1051c638906de686cd696e2",
        "gas": "0x731ea",
        "value": "0x0",
        "data": "0x608060405234801561001057600080fd5b50610599806100206000396000f3fe6080604052600436106100555760003560e01c80630d6680871461005a5780633ccfd60b146100835780636effe16f1461009a57806379af55e4146100da578063b69ef8a814610100578063b6b55f2514610116575b600080fd5b34801561006657600080fd5b5061007060015481565b6040519081526020015b60405180910390f35b34801561008f57600080fd5b50610098610129565b005b3480156100a657600080fd5b506100c27384bbb983d8cf2f58bd9b2de794a489d2e979866881565b6040516001600160a01b03909116815260200161007a565b3480156100e657600080fd5b506100986100f53660046104d8565b600180549091019055565b34801561010c57600080fd5b5061007060005481565b6100986101243660046104d8565b61021b565b60008054116101745760405162461bcd60e51b8152602060048201526012602482015271496e73756666696369656e742066756e647360701b60448201526064015b60405180910390fd5b60015442116101bd5760405162461bcd60e51b8152602060048201526015602482015274131bd8dac81d1a5b59481b9bdd08195e1c1a5c9959605a1b604482015260640161016b565b6000805490805560405181815233907f884edad9ce6fa2440d8a54cc123490eb96d2768479d49ff9c7366125a94243649060200160405180910390a26102187384bbb983d8cf2f58bd9b2de794a489d2e97986683383610297565b50565b8060008082825461022c91906104f1565b9091555061023f90504262093a806104f1565b60015560405181815233907fe1fffcc4923d04b559f4d29a8bfc6cda04eb5b0d3c460751c2402c5c5cc9109c9060200160405180910390a26102187384bbb983d8cf2f58bd9b2de794a489d2e97986683330846102fb565b6040516001600160a01b038381166024830152604482018390526102f691859182169063a9059cbb906064015b604051602081830303815290604052915060e01b6020820180516001600160e01b03838183161783525050505061033a565b505050565b6040516001600160a01b0384811660248301528381166044830152606482018390526103349186918216906323b872dd906084016102c4565b50505050565b600061034f6001600160a01b0384168361039d565b905080516000141580156103745750808060200190518101906103729190610512565b155b156102f657604051635274afe760e01b81526001600160a01b038416600482015260240161016b565b60606103ab838360006103b4565b90505b92915050565b6060814710156103d95760405163cd78605960e01b815230600482015260240161016b565b600080856001600160a01b031684866040516103f59190610534565b60006040518083038185875af1925050503d8060008114610432576040519150601f19603f3d011682016040523d82523d6000602084013e610437565b606091505b5091509150610447868383610453565b925050505b9392505050565b60608261046857610463826104af565b61044c565b815115801561047f57506001600160a01b0384163b155b156104a857604051639996b31560e01b81526001600160a01b038516600482015260240161016b565b508061044c565b8051156104bf5780518082602001fd5b604051630a12f52160e11b815260040160405180910390fd5b6000602082840312156104ea57600080fd5b5035919050565b808201808211156103ae57634e487b7160e01b600052601160045260246000fd5b60006020828403121561052457600080fd5b8151801515811461044c57600080fd5b6000825160005b81811015610555576020818601810151858301520161053b565b50600092019182525091905056fea264697066735822122084a398b75cf41c5c5390c18e3be63bf465587011eda31b4f4184e4575a06415164736f6c63430008170033",
        "nonce": "0x8"
      },
      "additionalContracts": [],
      "isFixedGasLimit": false
    },
    {
      "hash": "0x021b2125254b3f233dbb0a569c446346107efc7355a05fb50aa2b7fec3748270",
      "transactionType": "CALL",
      "contractName": null,
      "contractAddress": "0x84BbB983D8cF2F58bd9b2dE794a489d2e9798668",
      "function": null,
      "arguments": null,
      "transaction": {
        "type": "0x00",
        "from": "0xd8984d5d0a68fd6ec1051c638906de686cd696e2",
        "to": "0x84bbb983d8cf2f58bd9b2de794a489d2e9798668",
        "gas": "0xf9d2",
        "value": "0x0",
        "data": "0x095ea7b3000000000000000000000000642b3344716b2a1c6eb52bb90f6314c862f33baf00000000000000000000000000000000000000000000021e19e0c9bab2400000",
        "nonce": "0x9"
      },
      "additionalContracts": [],
      "isFixedGasLimit": false
    },
    {
      "hash": "0x97c2504be6d21a265b36bb5e11dfac025e31ca30551a7ea7fca7021ad7a187b1",
      "transactionType": "CALL",
      "contractName": "Timelock",
      "contractAddress": "0x642b3344716b2A1C6eB52BB90f6314C862f33baF",
      "function": "deposit(uint256)",
      "arguments": [
        "10000000000000000000000"
      ],
      "transaction": {
        "type": "0x00",
        "from": "0xd8984d5d0a68fd6ec1051c638906de686cd696e2",
        "to": "0x642b3344716b2a1c6eb52bb90f6314c862f33baf",
        "gas": "0x23198",
        "value": "0x0",
        "data": "0xb6b55f2500000000000000000000000000000000000000000000021e19e0c9bab2400000",
        "nonce": "0xa"
      },
      "additionalContracts": [],
      "isFixedGasLimit": false
    }
  ],
  "receipts": [
    {
      "transactionHash": "0xe96d238f80def9ea4e5072700ae19522f0fec019df3d4e0f7e961491118a798a",
      "transactionIndex": "0x0",
      "blockHash": "0x28ea15a05dedece152dca14c92d676c12e4ca07284538b65bec47b210d7ec5ad",
      "blockNumber": "0xf76b3",
      "from": "0xD8984d5D0A68FD6ec1051C638906de686cD696E2",
      "to": null,
      "cumulativeGasUsed": "0x588dc",
      "gasUsed": "0x588dc",
      "contractAddress": "0x642b3344716b2A1C6eB52BB90f6314C862f33baF",
      "logs": [],
      "status": "0x1",
      "root": "0x363ce471dcac207d9964d81e4a9e05df3271ce735dd3b1ed2c43872b56429672",
      "logsBloom": "0x00000000000000000000000000000000000000000000000000000000000000000000000000000000000000000000000000000000000000000000000000000000000000000000000000000000000000000000000000000000000000000000000000000000000000000000000000000000000000000000000000000000000000000000000000000000000000000000000000000000000000000000000000000000000000000000000000000000000000000000000000000000000000000000000000000000000000000000000000000000000000000000000000000000000000000000000000000000000000000000000000000000000000000000000000000000",
      "type": "0x0",
      "effectiveGasPrice": "0x74d7feb"
    },
    {
      "transactionHash": "0x021b2125254b3f233dbb0a569c446346107efc7355a05fb50aa2b7fec3748270",
      "transactionIndex": "0x1",
      "blockHash": "0x28ea15a05dedece152dca14c92d676c12e4ca07284538b65bec47b210d7ec5ad",
      "blockNumber": "0xf76b3",
      "from": "0xD8984d5D0A68FD6ec1051C638906de686cD696E2",
      "to": "0x84BbB983D8cF2F58bd9b2dE794a489d2e9798668",
      "cumulativeGasUsed": "0xb4df",
      "gasUsed": "0xb4df",
      "contractAddress": null,
      "logs": [
        {
          "address": "0x84BbB983D8cF2F58bd9b2dE794a489d2e9798668",
          "topics": [
            "0x8c5be1e5ebec7d5bd14f71427d1e84f3dd0314c0f7b2291e5b200ac8c7c3b925",
            "0x000000000000000000000000d8984d5d0a68fd6ec1051c638906de686cd696e2",
            "0x000000000000000000000000642b3344716b2a1c6eb52bb90f6314c862f33baf"
          ],
          "data": "0x00000000000000000000000000000000000000000000021e19e0c9bab2400000",
          "blockHash": "0x28ea15a05dedece152dca14c92d676c12e4ca07284538b65bec47b210d7ec5ad",
          "blockNumber": "0xf76b3",
          "transactionHash": "0x021b2125254b3f233dbb0a569c446346107efc7355a05fb50aa2b7fec3748270",
          "transactionIndex": "0x1",
          "logIndex": "0x0",
          "removed": false
        }
      ],
      "status": "0x1",
      "root": "0xba9c1e274ae583e227c697476f23a7216752430574447e6bd86f861cc160cb74",
      "logsBloom": "0x00000000000000000000000000000000040000000000000000000000000000000000000000000000000000000000000000000000000000000000000000200000000000000000000002000040000000000000000000000000000000000000000000000000000000000000000100000000000000000000000000000000000000004000000000000000000000000000000000000000000000000000000000000000020000000000000000000000000000000000000000000000000000000240000000000000400000000000000000000000000000000000000000000000000000100010000000000000000000000000000000000000000000000000000000000000",
      "type": "0x0",
      "effectiveGasPrice": "0x5ba4636"
    },
    {
      "transactionHash": "0x97c2504be6d21a265b36bb5e11dfac025e31ca30551a7ea7fca7021ad7a187b1",
      "transactionIndex": "0x2",
      "blockHash": "0x28ea15a05dedece152dca14c92d676c12e4ca07284538b65bec47b210d7ec5ad",
      "blockNumber": "0xf76b3",
      "from": "0xD8984d5D0A68FD6ec1051C638906de686cD696E2",
      "to": "0x642b3344716b2A1C6eB52BB90f6314C862f33baF",
      "cumulativeGasUsed": "0x16ebe",
      "gasUsed": "0x16ebe",
      "contractAddress": null,
      "logs": [
        {
          "address": "0x642b3344716b2A1C6eB52BB90f6314C862f33baF",
          "topics": [
            "0xe1fffcc4923d04b559f4d29a8bfc6cda04eb5b0d3c460751c2402c5c5cc9109c",
            "0x000000000000000000000000d8984d5d0a68fd6ec1051c638906de686cd696e2"
          ],
          "data": "0x00000000000000000000000000000000000000000000021e19e0c9bab2400000",
          "blockHash": "0x28ea15a05dedece152dca14c92d676c12e4ca07284538b65bec47b210d7ec5ad",
          "blockNumber": "0xf76b3",
          "transactionHash": "0x97c2504be6d21a265b36bb5e11dfac025e31ca30551a7ea7fca7021ad7a187b1",
          "transactionIndex": "0x2",
          "logIndex": "0x0",
          "removed": false
        },
        {
          "address": "0x84BbB983D8cF2F58bd9b2dE794a489d2e9798668",
          "topics": [
            "0x8c5be1e5ebec7d5bd14f71427d1e84f3dd0314c0f7b2291e5b200ac8c7c3b925",
            "0x000000000000000000000000d8984d5d0a68fd6ec1051c638906de686cd696e2",
            "0x000000000000000000000000642b3344716b2a1c6eb52bb90f6314c862f33baf"
          ],
          "data": "0x0000000000000000000000000000000000000000000000000000000000000000",
          "blockHash": "0x28ea15a05dedece152dca14c92d676c12e4ca07284538b65bec47b210d7ec5ad",
          "blockNumber": "0xf76b3",
          "transactionHash": "0x97c2504be6d21a265b36bb5e11dfac025e31ca30551a7ea7fca7021ad7a187b1",
          "transactionIndex": "0x2",
          "logIndex": "0x1",
          "removed": false
        },
        {
          "address": "0x84BbB983D8cF2F58bd9b2dE794a489d2e9798668",
          "topics": [
            "0xddf252ad1be2c89b69c2b068fc378daa952ba7f163c4a11628f55a4df523b3ef",
            "0x000000000000000000000000d8984d5d0a68fd6ec1051c638906de686cd696e2",
            "0x000000000000000000000000642b3344716b2a1c6eb52bb90f6314c862f33baf"
          ],
          "data": "0x00000000000000000000000000000000000000000000021e19e0c9bab2400000",
          "blockHash": "0x28ea15a05dedece152dca14c92d676c12e4ca07284538b65bec47b210d7ec5ad",
          "blockNumber": "0xf76b3",
          "transactionHash": "0x97c2504be6d21a265b36bb5e11dfac025e31ca30551a7ea7fca7021ad7a187b1",
          "transactionIndex": "0x2",
          "logIndex": "0x2",
          "removed": false
        }
      ],
      "status": "0x1",
      "root": "0xb0089ec4da07a078966296f48230112419da25da87616e42bef8bf6d63fcc3fe",
      "logsBloom": "0x00000000000000000000000000000000040000000000000000000000000000000000000000000000000000000000000000000000000000000000000040200000000000000000000002000048000000000000000000000000000000008000000000000000000000000000000100000000000000000000000000000010000000004000000000000000000000000000000000000001000000000000000000000000020000000000000000000000000000000000000000000000000000000240000100000002400000000000000000000000000000000000000000000000000000100010000000000000000000002000000000000000000000400000000000000000",
      "type": "0x0",
      "effectiveGasPrice": "0x754d4c0"
    }
  ],
  "libraries": [],
  "pending": [],
  "returns": {},
  "timestamp": 1709302626,
  "chain": 2442,
  "multi": false,
  "commit": "8585910"
}